:100000000C942A000C9434000C9434000C943400AA
:100010000C9434000C9434000C9434000C94340090
:100020000C9434000C9434000C9434000C94340080
:100030000C9434000C9434000C9434000C94340070
:100040000C9434000C9434000C9434000C94340060
:100050000C94340011241FBECFE5D8E0DEBFCDBF25
:100060000E946A000C9497000C94000084B3846092
:1000700084BB089585B3846085BB089585B38B7F69
:1000800085BB089584B3806884BB089581B388607C
:1000900081BB089582B3886082BB089582B3877F55
:1000A00082BB08958AB384608ABB08958BB3846051
:1000B0008BBB08958BB38B7F8BBB08958AB388600D
:1000C0008ABB08958BB388608BBB08958BB3877F01
:1000D0008BBB08950E9436000E9442000E94460099
:1000E0000E9452000E945E000E943A000E944A0054
:1000F0000E9456000E9462002FEF83ED90E3215092
:1001000080409040E1F700C000000E943E000E9445
:100110004E000E945A000E9466002FEF83ED90E38C
:10012000215080409040E1F700C00000DDCFF894FE
:02013000FFCFFF
:00000001FF
